:020000040800F2
:10000000183F002089160008AD020008AF02000862
:10001000B3020008B7020008BB020008000000009D
:10002000000000000000000000000000BF02000807
:10003000C102000800000000C3020008C502000859
:10004000A3160008A3160008A3160008A3160008AC
:10005000A3160008A3160008A3160008A31600089C
:10006000A3160008A3160008A3160008374E0008C0
:10007000A3160008A3160008A3160008A31600087C
:10008000A3160008A3160008514E0008A316000886
:10009000A3160008A3160008A3160008A31600085C
:1000A000A3160008A3160008A3160008A31600084C
:1000B000A3160008A3160008A3160008A31600083C
:1000C000A3160008A3160008A3160008A31600082C
:1000D000A3160008FD150008A3160008A3160008C3
:1000E000A3160008A3160008A3160008A31600080C
:1000F000A3160008A3160008A3160008A3160008FC
:10010000A3160008A3160008A3160008A3160008EB
:10011000A3160008A3160008A3160008A3160008DB
:10012000A3160008A3160008A3160008A3160008CB
:10013000DFF80CD006F076FC004800477D0100088F
:10014000183F002010B53C2305220021104600F086
:10015000FDFF05230A220021184600F0F7FF3C238B
:100160007F221946052000F0F1FF3C237F22372132
:100170007A2000F0EBFF01F099F810BD01F07AF958
:100180004FF4407001F092FA4FF4E13001F0EAF9D7
:1001900001F0B0F800F0FFFE00F085FAFFF7D2FFA3
:1001A00004F03BF93B4804F0CFFB04F0EDFB41F2D7
:1001B000883001F09CF900BF012001F014F90028FB
:1001C000FAD04FF4A073F0220021084604F097F90A
:1001D00004F000FC40F2CF21632003F0BFFD40F2A9
:1001E00067102D49088040F2CF21632003F013FEF1
:1001F00040F267102949088004F082FD40F2E711BF
:10020000472003F051FE43E004F0C0FC04F0E2FBA1
:100210002048008800EBC00101EB00100121C1EB78
:1002200080001E49143908801A49486806F01DFAF2
:1002300006461B4A1B4B06F02EF9044606F066FAEA
:10024000164908801348006E012821D10020114969
:10025000086604F0A1FE1448D0F8D0070D49C86024
:100260001148D0F8D4170B4801610F48D0F8D817BF
:10027000084841610C48D0F8DC17064881610A48FB
:10028000D0F8E0170348C1610748006801490862D7
:10029000BAE700006805002034080040402C014007
:1002A000CDCCCCCCCCCC1C4014330020704700BF4C
:1002B000FEE700BFFEE700BFFEE700BFFEE77047B6
:1002C00070477047704700000CB500200190009007
:1002D0006C48006840F480306A49086000BF694893
:1002E000006800F4003000900198401C01900098D4
:1002F00018B90198B0F5A06FF1D16248006800F418
:10030000003010B10120009001E000200090009822
:10031000012843D15C48006840F010005A49086049
:100320000846006820F0030008600846006840F0B6
:1003300002000860534840685249486008464068D7
:1003400048600846406840F480604860084640685D
:1003500020F47C1048600846406840F4E81048608B
:100360000846006840F08070086000BF454800689B
:1003700000F000700028F9D04248406820F00300E7
:10038000404948600846406840F00200486000BFAD
:100390003C48406800F00C000828F9D10CBD10B5AD
:1003A000FFF792FF10BD10B53648006840F001001D
:1003B000344908600846406834490840314948607B
:1003C00008460068324908402E490860084600681F
:1003D00020F4802008600846406820F4FE00486051
:1003E0004FF41F008860FFF7DAFF4FF000602949E3
:1003F000086010BD10B5002100200022214B5B6871
:1004000003F00C0121B1042906D0082928D107E006
:10041000214B224C236027E01F4B204C236023E01C
:10042000184B5B6803F47010164B5B6803F4803262
:10043000022303EB904022B9194B4343174C23602E
:100440000DE0104B5B6803F4003323B1144B4343BE
:10045000124C236003E0104B4343104C236003E035
:100460000D4B0E4C236000BF00BF064B5B68C3F30F
:1004700003130C4CE15C094B1B68CB40074C236019
:1004800010BD000000100240002002400000FFF8F4
:10049000FFFFF6FE08ED00E000127A0000000020E9
:1004A00000093D000400002010B54FF48071F848A9
:1004B00002F0CFF84FF40071F54802F0CAF84FF49B
:1004C0000071F34802F0C7F84FF48071F04802F071
:1004D000C2F810BD10B54FF48071ED4802F0B9F8C4
:1004E0004FF40071EA4802F0B6F84FF40071E848A2
:1004F00002F0AFF810BD10B54FF48071E44802F07F
:10050000A8F84FF48071E24802F0A5F810BD2DE97B
:10051000F04105462C464FF48071DD4802F09BF80F
:1005200000261CE0274607F08007802F04D1B90081
:10053000D74802F08EF804E04FF40071D44802F07E
:100540008AF86006040E4FF48071D14802F081F8F9
:100550004FF48071CE4802F07EF8701CC6B2082EAF
:10056000E0DBBDE8F08110B50446FFF79DFF782081
:10057000FFF7CDFFFFF7BFFF0020FFF7C8FFFFF732
:10058000BAFF2046FFF7C3FFFFF7B5FFFFF7A2FF53
:1005900010BD10B50446FFF787FF7820FFF7B7FFBF
:1005A000FFF7A9FF4020FFF7B2FFFFF7A4FF2046A7
:1005B000FFF7ADFFFFF79FFFFFF78CFF10BD70B592
:1005C00004460D461DB1E0B2FFF7E3FF02E0E0B2E2
:1005D000FFF7C9FF70BD70B50646002418E004F1AE
:1005E000B0000021FFF7EBFF00210846FFF7E7FF0F
:1005F00000211020FFF7E3FF002505E00121304630
:10060000FFF7DDFF681CC5B2802DF7DB601CC4B2AC
:10061000082CE4DB70BD06E041F6650100E0491EF0
:100620000029FCD1401E0028F6D17047014605E0A4
:10063000002001E0421CD0B27B28FBDB0A1EA1F1A6
:100640000101F5D1704770B504460D4605F1B000C3
:100650000021FFF7B4FF102141EA14100021FFF739
:10066000AEFF04F00F000021FFF7A9FF70BD10B529
:1006700000218D20FFF7A3FF00211420FFF79FFF2B
:100680000021AF20FFF79BFF10BD10B500218D208A
:10069000FFF795FF00211020FFF791FF0021AE200A
:1006A000FFF78DFF10BD70B5002418E004F1B00015
:1006B0000021FFF784FF00210846FFF780FF00219B
:1006C0001020FFF77CFF002505E001210020FFF747
:1006D00076FF681CC5B2802DF7DB601CC4B2082C05
:1006E000E4DB70BD70B5002418E004F1B000002117
:1006F000FFF765FF00210846FFF761FF002110208A
:10070000FFF75DFF002505E001210846FFF757FFD1
:10071000681CC5B2802DF7DB601CC4B2082CE4DB7A
:1007200070BD2DE9F04707460E46904699460025D4
:100730000024A8F12000C5B27F2F02DD0027B01CE5
:10074000C6B2B9F1100F24D131463846FFF77BFF0E
:10075000002408E004EB05114E4A505C0121FFF72C
:100760002EFF601CC4B2082CF4DB701CC1B23846EA
:10077000FFF769FF002409E004EB05110831454A41
:10078000505C0121FFF71BFF601CC4B2082CF3DB97
:1007900012E031463846FFF756FF00240AE005EB29
:1007A00045013D4A02EB4101085D0121FFF707FFCA
:1007B000601CC4B2062CF2DBBDE8F08710B502461F
:1007C000012000E050430B1EA1F10104E1B2F9D178
:1007D00010BD2DE9FF5F074691461E460E9D4FF066
:1007E000000A002435E0301B401EC1B20A20FFF78A
:1007F000E5FFB9FBF0F00A21B0FBF1F201FB1208B2
:10080000BAF1000F14D1701EA04211DDB8F1000F33
:100810000CD1AB4605EBDB71491001FB0471C8B28A
:100820002B4620220199FFF77CFF10E04FF0010AD0
:10083000AB4605EBDB71491001FB0471C8B208F14E
:100840003001CAB22B460199FFF76BFF00BF601C55
:10085000C4B2B442C7DBBDE8FF9F2DE9F0410546B5
:100860000E4614461F460EE022783B463146284687
:10087000FFF757FF05F10800C5B2782D02DD00250E
:10088000B01CC6B2641C20780028EDD1BDE8F08110
:10089000000C0140DA6E0008B26C00082DE9F0414E
:1008A00080460E461546002731464046FFF7CBFEF0
:1008B00000240AE0F74A02EB8511085D0121FFF7E9
:1008C0007EFE781CC7B2601CC4B2102CF2DB701C18
:1008D000C1B24046FFF7B7FE00240CE06900491C96
:1008E000EC4A02EB4111085D0121FFF768FE781C1C
:1008F000C7B2601CC4B2102CF0DBBDE8F0812DE95A
:10090000F05F06460F4690461C46DDF828A04FF0E3
:10091000000BE11704EB5171C910A4EBC10131B90F
:100920002046E11704EB5171C1F3C70506E02046EC
:10093000E11704EB5171C910491CCDB23D4615E0D9
:1009400029463046FFF77FFEB1460BE059460BF1D2
:10095000010B1AF801000121FFF731FE09F1010036
:1009600000F0FF09C145F1DB681CC5B2A542E7DB19
:10097000BDE8F09F2DE9FF5F86B014461D464FF09D
:10098000010A00200390049005904FF00109002611
:1009900000BF8346002213462046294605F0E2FEAA
:1009A00009D285F00040CDE900402046019905F0CC
:1009B0008EFE064604E02046294605F088FE0646DF
:1009C000304605F052FE22462B46CDE9000105F0E7
:1009D0005FFD074688460022AF4B3846414605F08A
:1009E0005AFDCDE9000105F091FE834607E009EBD1
:1009F00089004FEA40090AF1010000F0FF0A0A20CD
:100A000096FBF0F090FBF9F00028F0D142F2107064
:100A100096FBF0F00A2190FBF1F201FB1200C0B24C
:100A20008DF80C004FF47A7096FBF0F090FBF1F229
:100A300001FB1200C0B28DF80D00642096FBF0F0AF
:100A400090FBF1F201FB1200C0B28DF80E000A20FB
:100A500096FBF0F090FBF1F201FB1200C0B28DF8B2
:100A60000F000A2096FBF0F100FB1160C0B28DF878
:100A700010002E208DF811004FF47A70BBFBF0F0BF
:100A80000A21B0FBF1F201FB12008DF81200642084
:100A9000BBFBF0F0B0FBF1F201FB12008DF813008C
:100AA0000A20BBFBF0F0B0FBF1F201FB12008DF865
:100AB00014000A20BBFBF0F100FB11B08DF815000B
:100AC00000211498801D03AA1154894608E003A848
:100AD00010F80900303003A901F8090009F10109F3
:100AE000B9F10A0FF3DB002213462046294605F030
:100AF00039FE08D20AF1010000F0FF0A2D20CAF1E8
:100B0000050103AA50542E208DF8110000211498DD
:100B1000801D03AA1154CAF1050003A9421810232D
:100B2000DDE90610FFF799FE0AB0BDE8F09F2DE958
:100B3000F04F89B08246894617469846DDF84CB09A
:100B400001200790002004900590069001240025C4
:100B500000BF00264FEAC9604FEA10693846414697
:100B600005F0B5FD0546284605F090FD3A4643469A
:100B7000CDE9000105F08CFCCDE902010022464BD5
:100B8000DDE9020105F087FCCDE9000105F0BEFDBD
:100B9000064606E004EB840044000798401CC0B2FF
:100BA00007900A20B5FBF0F0B0FBF4F00028F1D17B
:100BB00042F21070B5FBF0F00A21B0FBF1F201FB3C
:100BC00012008DF810004FF47A70B5FBF0F0B0FB16
:100BD000F1F201FB12008DF811006420B5FBF0F07A
:100BE000B0FBF1F201FB12008DF812000A20B5FBF8
:100BF000F0F0B0FBF1F201FB12008DF813002E2093
:100C00008DF815004FF47A70B6FBF0F0B0FBF1F2FE
:100C100001FB12008DF816006420B6FBF0F0B0FB6B
:100C2000F1F201FB12008DF817000A20B6FBF0F07C
:100C3000B0FBF1F201FB12008DF818000A20B6FBA0
:100C4000F0F100FB11608DF8190000210BF1060096
:100C500004AA1154002405E004A8005D303004A962
:100C60000855641C0A2CF7DB2E208DF81500002196
:100C70000BF1060004AA11541298C0F1050004A952
:100C800042180C2351464846FFF7E7FD09B0BDE87E
:100C9000F08F0000140000200088C3402DE9F041CF
:100CA00005460F46164600BF05EB45014906080EEE
:100CB0003946FFF7C8FC00240BE006F1100101EBF8
:100CC0004101FB4A02EB4101085D0121FFF777FC7E
:100CD000641C062CF1DBBDE8F0812DE9F0410546EE
:100CE0000F46164600BF05EB45014906080E39467A
:100CF000FFF7A9FC002409E006EB4601EC4A02EBF1
:100D00004101085D0121FFF75AFC641C062CF3DB4E
:100D1000BDE8F0812DE9F047054689461646344680
:100D2000002C22DA6442642094FBF0F100FB1140B5
:100D30000A2190FBF1F0C7B20A2094FBF0F100FB0E
:100D4000114000F0FF080D2249462846FFF7C5FF75
:100D5000691CC8B23A464946FFF7A0FFA91CC8B2B1
:100D600042464946FFF79AFF20E0642094FBF0F1E9
:100D700000FB11400A2190FBF1F0C7B20A2094FB5E
:100D8000F0F100FB114000F0FF080B224946284615
:100D9000FFF7A3FF691CC8B23A464946FFF77EFF3A
:100DA000A91CC8B242464946FFF778FFBDE8F08764
:100DB0002DE9F04705468A4616463446002C2DDAC2
:100DC00064420D2251462846FFF787FF0A2094FB14
:100DD000F0F100FB1140C7B20A2094FBF0F00A21A9
:100DE00090FBF1F201FB120000F0FF08642094FB7D
:100DF000F0F000F0FF09E91CC8B23A465146FFF78F
:100E00004DFFA91CC8B242465146FFF747FF691C77
:100E1000C8B24A465146FFF741FF2BE00B2251462C
:100E20002846FFF75AFF0A2094FBF0F100FB11401F
:100E3000C7B20A2094FBF0F00A2190FBF1F201FB0B
:100E4000120000F0FF08642094FBF0F000F0FF09AE
:100E5000E91CC8B23A465146FFF720FFA91CC8B2A8
:100E600042465146FFF71AFF691CC8B24A4651462E
:100E7000FFF714FFBDE8F0872DE9F05F05468B46CC
:100E800016463446002C00DA64424FF47A7094FB24
:100E9000F0F0C7B24FF47A7094FBF0F100FB114010
:100EA000642190FBF1F000F0FF08642094FBF0F166
:100EB00000FB11400A2190FBF1F000F0FF090A202D
:100EC00094FBF0F100FB114000F0FF0A3A4659464E
:100ED0002846FFF7E3FE691CC8B242465946FFF7B1
:100EE000DDFEA91CC8B24A465946FFF7D7FEE91CE9
:100EF000C8B252465946FFF7D1FEBDE8F09F2DE932
:100F0000F05F05460E46144642F21070B4FBF0F056
:100F1000C7B242F21070B4FBF0F100FB11404FF485
:100F20007A71B0FBF1F000F0FF080846B4FBF0F175
:100F300000FB11406421B0FBF1F000F0FF096420D8
:100F4000B4FBF0F100FB11400A21B0FBF1FA0A20DA
:100F5000B4FBF0F100FB114B3A4631462846FFF74F
:100F60009DFE691CC8B242463146FFF797FEA91C98
:100F7000C8B24A463146FFF791FEE91CC8B2524654
:100F80003146FFF78BFE291DC8B25A463146FFF79E
:100F900085FEBDE8F09F08B50121092001F068FD3C
:100FA0000121444801F079FB4FF44070ADF8000096
:100FB00010208DF8030003208DF8020069463E489A
:100FC00001F09AFA4FF440713B4801F042FB4FF4B4
:100FD000487000F08CFA0021AE20FFF7F0FA0021F3
:100FE0000846FFF7ECFA00211020FFF7E8FA00218D
:100FF0004020FFF7E4FA0021B020FFF7E0FA0021DB
:101000008120FFF7DCFA0021FF20FFF7D8FA00214A
:10101000A120FFF7D4FA0021A620FFF7D0FA002183
:10102000A820FFF7CCFA00213F20FFF7C8FA0021E3
:10103000C820FFF7C4FA0021D320FFF7C0FA00212F
:101040000846FFF7BCFA0021D520FFF7B8FA0021C7
:101050008020FFF7B4FA0021D820FFF7B0FA002172
:101060000520FFF7ACFA0021D920FFF7A8FA0021EC
:10107000F120FFF7A4FA0021DA20FFF7A0FA0021FF
:101080001220FFF79CFA0021DB20FFF798FA0021DD
:101090003020FFF794FA00218D20FFF790FA00210D
:1010A0001420FFF78CFA0021AF20FFF788FA08BD63
:1010B000B26C000800023000000C014070B50A4616
:1010C000CE1701EB5676C6F3C703CE1701EB567663
:1010D000F610A1EBC606F4B20122A240D5B2844AB2
:1010E00002EBC002D25C2A43814E06EBC006F254EA
:1010F00070BD70B50B46CE1701EB5676C6F3C7022E
:10110000CE1701EB5676F610A1EBC606F4B201231A
:10111000A340DDB2764B03EBC0039B5CDB43744E14
:1011200006EBC006B354724B03EBC0039B5C2B432E
:101130006F4E06EBC006B3546D4B03EBC0039B5CD4
:10114000DB436B4E06EBC006B35470BD2DE9F84F80
:1011500005460E4617469846002D0ADB802F08DC10
:10116000002E06DBB8F1400F03DCBD4201DC464532
:1011700001DDBDE8F88FBD420DD1002406E0301935
:10118000C1B22846FFF79AFF601CC4B2A8EB060064
:10119000A042F4DC30E046450CD1002406E02919D9
:1011A000C8B23146FFF78AFF601CC4B2781BA04268
:1011B000F5DC21E0A8EB060000F0FF0A781B00F048
:1011C000FF0B0AEB8A00400090FBFBF000F0FF09E8
:1011D00000240EE004FB09F00A2190FBF1F03044FA
:1011E000C0B229190090C8B20099FFF767FF601CD0
:1011F000C4B2781BA042EDDC00BFBAE72DE9F84F7E
:1012000005460E4617469846002D0ADB802F08DC5F
:10121000002E06DBB8F1400F03DCBD4201DC464581
:1012200001DDBDE8F88FBD420DD1002406E0301984
:10123000C1B22846FFF75DFF601CC4B2A8EB0600F0
:10124000A042F4DC30E046450CD1002406E0291928
:10125000C8B23146FFF74DFF601CC4B2781BA042F4
:10126000F5DC21E0A8EB060000F0FF0A781B00F097
:10127000FF0B0AEB8A00400090FBFBF000F0FF0937
:1012800000240EE004FB09F00A2190FBF1F0304449
:10129000C0B229190090C8B20099FFF72AFF601C5C
:1012A000C4B2781BA042EDDC00BFBAE770B50024E1
:1012B0001BE004F1B0000021FFF781F9002108468E
:1012C000FFF77DF900211020FFF779F9002508E0EC
:1012D000074901EBC501085D0121FFF770F9681CA2
:1012E000C5B2802DF4DB601CC4B2082CE1DB70BDFC
:1012F000CC0D002008B50121142001F0B9FB01201C
:10130000ADF8000028208DF803006946544801F02C
:10131000F3F84FF40050ADF8000028208DF80300DA
:101320006946504801F0E8F808BD10B5044614B10C
:1013300001204D4908704C480078002837D0102112
:101340004A4801F06CF978B10821484801F067F982
:1013500050B10421454801F062F928B1012140480B
:1013600001F05DF9012822D10A2000F0C0F8002028
:101370003D49087010213D4801F051F908B901209C
:1013800010BD0821394801F04AF908B90220F7E7F1
:101390000421364801F043F908B90320F0E70121A0
:1013A0002F4801F03CF901281BD10420E8E7102167
:1013B0002E4801F034F9012813D108212B4801F0FF
:1013C0002EF901280DD10421284801F028F901281F
:1013D00007D10121224801F022F910B90120224948
:1013E00008700020CCE710B5044614B10120204954
:1013F00008701F48007810B30121194801F00FF957
:10140000012806D04FF40051164801F008F90128D0
:1014100015D10A2000F06BF8002015490870012151
:101420000F4801F0FCF8012800D110BD4FF4005125
:101430000C4801F0F4F801280FD10220F5E7012152
:10144000074801F0ECF840B94FF40051054801F0AD
:10145000E6F810B90120064908700020E5E7000011
:101460000008014000100140140500200018014050
:101470001505002010B56FF0040000F066F92E4845
:1014800000682E49B0FBF1F02D490870084600783D
:1014900000EB4001C1EBC0104FF6FF7101EAC00044
:1014A0002849088010BD0146254A12784A434FF06A
:1014B000E0235A6100229A611A46126942F0010241
:1014C0001A6100BF4FF0E022106900F001021AB16A
:1014D00000F48032002AF5D04FF0E022126922F0A9
:1014E00001024FF0E0231A6100229A617047014621
:1014F000144A12884A434FF0E0235A6100229A614D
:101500001A46126942F001021A6100BF4FF0E02250
:10151000106900F001021AB100F48032002AF5D0FF
:101520004FF0E022126922F001024FF0E0231A612D
:1015300000229A61704700000000002000127A002B
:10154000160500201805002000BF704700BF4A4A5A
:10155000128802F04002002AF9D0C2B2464B1B1D8D
:101560001A80704710B586B00446012144F2050088
:1015700001F07EFA4FF40070ADF8140003208DF8EE
:10158000160018208DF8170005A93C4800F0B4FF9C
:101590004FF48060ADF8140004208DF8170005A901
:1015A000364800F0A9FF25208DF8000003208DF8B3
:1015B00001008DF8020001208DF80300684600F05C
:1015C0007AF801940020ADF80800ADF80A00ADF8F3
:1015D0000C00ADF810000C20ADF80E0001A9264853
:1015E00002F0FBF9012240F22551234802F08DFA66
:1015F0000121214802F07DFA06B010BD10B540F27D
:1016000025511D4802F066FB10B31B4802F0E2FAB8
:10161000C4B21B48008800F40040C8B918480088CC
:1016200000F4804060B10A2C03D0002014490880E7
:1016300020E01348008840F400401149088019E078
:101640000D2C06D10E48008840F480400C490880DB
:1016500010E00B480088C0F30D000A490C540848FC
:101660000088401C0649088008460088C72801DD1C
:101670000020088010BD0000003801400008014033
:10168000200500204C1200200648804706480047ED
:10169000FEE7FEE7FEE7FEE7FEE7FEE7FEE7FEE722
:1016A000FEE7FEE7A70300083101000831490143C6
:1016B000314A1160704770B5002100230F22C478B1
:1016C00004B32D4C246804F4E064C4F5E064210AFA
:1016D000C1F10403CA40447804FA03F18478144049
:1016E00021430901254C0678A155047804F01F0513
:1016F0000124AC4005786D11AD0005F1E025C5F879
:10170000004109E0047804F01F050124AC401C4DA1
:101710000678761145F8264070BD1A4A0A40024301
:10172000154B1B1F1A60704739B1134A121D1268FE
:101730000243114B1B1D1A6006E00F4A121D12686E
:1017400082430D4B1B1D1A607047042808D14FF0CF
:10175000E021096941F004014FF0E022116107E046
:101760004FF0E021096921F004014FF0E0221161FE
:10177000704700000000FA050CED00E000E400E016
:1017800080E100E080FFFF1F10B50446FA48844264
:1017900008D10121401501F085F90021601501F003
:1017A00081F917E0F548844208D10121001501F0C4
:1017B00079F90021201501F075F90BE0F048844219
:1017C00008D10121C80301F06DF900214FF4004058
:1017D00001F068F910BD30B50246002000235068C2
:1017E000E84C20400D790C6844EA05242043506001
:1017F0009068E54C2040D1E902542C434D7944EAED
:10180000450420439060D06A20F470000C7C641E74
:10181000E4B2234340EA0350D06230BD00210160AE
:10182000017141718160C16001210174704721B172
:10183000826842F00102826003E0826822F00102C5
:101840008260704721B1826842F48072826003E056
:10185000826822F480728260704710B50023CBB298
:101860001AB144681C43446002E044689C434460ED
:1018700010BD816841F00801816070470146002079
:101880008A6802F008020AB1012000E000207047D7
:10189000816841F0040181607047014600208A6838
:1018A00002F004020AB1012000E00020704721B1DB
:1018B000826842F4A002826003E0826822F4A002FF
:1018C00082607047014600208A6802F480020AB1F3
:1018D000012000E00020704710B50A4600210023D7
:1018E000416821F46041531E41EA4331416010BD1B
:1018F00021B1426842F40062426003E0426822F48F
:10190000006242607047F0B504460D460020002199
:10191000092D11DDE068A5F10A0606EB460707264A
:1019200006FA07F18843A5F10A0606EB460603FA14
:1019300006F10843E0600CE0206905EB4507072647
:1019400006FA07F1884305EB450603FA06F108435A
:101950002061072A0FDA606B561E06EB86071F26EA
:1019600006FA07F18843561E06EB860605FA06F1CD
:101970000843606322E00D2A0FDA206BD61F06EBC6
:1019800086071F2606FA07F18843D61F06EB860650
:1019900005FA06F10843206310E0E06AA2F10D06A3
:1019A00006EB86071F2606FA07F18843A2F10D060B
:1019B00006EB860605FA06F10843E062F0BD21B1A8
:1019C000826842F48012826003E0826822F480120E
:1019D000826070470146C86C80B2704766484C30E0
:1019E0000068704721B1426842F48062426003E0BF
:1019F000426822F480624260704721B1426842F43A
:101A00008052426003E0426822F480524260704794
:101A10000A460021816821F4E0411143816070474A
:101A200021B1826842F40042826003E0826822F4BD
:101A300000428260704721B1826842F402128260E3
:101A400003E0826822F4021282607047014600209F
:101A50008A6802F400120AB1012000E000207047F9
:101A6000F0B504461546002000220026092911DDA4
:101A7000E068A1F10A0707EB470C072707FA0CF209
:101A80009043A1F10A0707EB470703FA07F2104357
:101A9000E0600CE0206901EB410C072707FA0CF22B
:101AA000904301EB410703FA07F210432061A06B5A
:101AB000C0F30156EF1C06F1010CA7EB0C0707EB76
:101AC000870C1F2707FA0CF29043EF1C06F1010C5C
:101AD000A7EB0C0707EB870701FA07F21043A06397
:101AE000F0BD10B50A4600210023816B21F440119E
:101AF000531E41EA0351816310BD08B500230093D2
:101B00000090009B0B440093009B1A6008BD08B531
:101B1000024600200090009201F12800009B18442A
:101B200000900098006880B208BD0A460021416814
:101B3000164B194011434160704741628262704701
:101B40000A460021416821F01F011143416070479E
:101B500040B109490831096841F40001064A0832D8
:101B6000116007E004490831096821F40001024AC4
:101B70000832116070470000002401400028014035
:101B8000003C0140FFFEF0FFFDF7F1FFFFFD3FFFCE
:101B90000246002013680B400BB1012000E000203A
:101BA0007047CA430260704770B5024600200023A8
:101BB00000240B125568CEB205EA060415681D40D4
:101BC00015B10CB1012000E0002070BD00220A1206
:101BD000D34303607047000001684FF6FE72114066
:101BE00001600021016041608160C1608D498842CF
:101BF00008D18C490839496841F00F01894A083AEF
:101C000051608AE087491431884208D185490839F2
:101C1000496841F0F001834A083A51607DE081490A
:101C20002831884208D17F490839496841F47061F8
:101C30007C4A083A516070E07A493C31884208D1C8
:101C400078490839496841F47041764A083A516048
:101C500063E074495031884208D1724908394968B3
:101C600041F470216F4A083A516056E06D49643181
:101C7000884208D16B490839496841F47001694AC2
:101C8000083A516049E067497831884208D165498E
:101C90000839496841F07061624A083A51603CE095
:101CA0006149884206D1011F096841F00F01021FF6
:101CB000116032E05C491431884208D15A49091F49
:101CC000096841F0F001584A121F116025E0564999
:101CD0002831884208D15449091F096841F47061CC
:101CE000514A121F116018E04F493C31884208D117
:101CF0004D49091F096841F470414B4A121F116098
:101D00000BE049495031884207D14749091F09680A
:101D100041F47021444A121F1160704710B500222F
:101D2000026847F6F0739A430C6A8B6823430C6988
:101D300023434C6923438C692343CC6923434C6A76
:101D400023438C6A23431A430260CB6843600B68C9
:101D500083604B68C36010BD0021016041608160F9
:101D6000C160016141618161C16101624162816261
:101D7000704721B1026842F00102026004E002688B
:101D80004FF6FE731A40026070471AB103680B43A6
:101D9000036002E003688B43036070474160704753
:101DA0000146486880B2704701460020002201F0D9
:101DB00080531BB11C4B083B1A6802E0194B083BCF
:101DC0001A6802EA01030BB1012000E0002070470D
:101DD00000F0805119B11449091F086002E011494F
:101DE00008394860704701460020002201F0805306
:101DF0001BB10D4B083B1A6802E00A4B083B1A68FE
:101E000002EA01030BB1012000E00020704700F05E
:101E1000805119B10449091F086002E001490839DD
:101E200048607047080002400804024030B943F29D
:101E3000DB028100A1F1C0410A6005E043F2D20259
:101E40008100A1F1C0410A606FF07042411C89001D
:101E5000A1F1C0410A608100A1F1C041C1F8042193
:101E6000704710280AD118214FF0204211664021F6
:101E700051664FF0FC319166D16610E01821F74AA7
:101E8000116040214FF02042C2F884104FF0FC3125
:101E9000F24A083211604FF02042C2F88C107047AD
:101EA0001820EE492031086000200906C1F8A4007E
:101EB0004FF0FC30E94928310860091D0860091D10
:101EC00008607047D0E901121143C26811430269EA
:101ED00011434269114382691143C2691143026A85
:101EE0001143426A1143826A1143C26A1143026B71
:101EF000114302689200A2F1C04211608168082972
:101F00000BD101688900A1F1C041096841F040028C
:101F100001688900A1F1C0410A60416B0968426B08
:101F2000526841EA0211426B926841EA0221426B17
:101F3000928941EA0241426B128A41EA0251426BA4
:101F4000127D41EA0261426B926911430268521CA0
:101F50009200A2F1C0421160C16AB1F5804F1BD15D
:101F6000816B0968826B526841EA0211826B926848
:101F700041EA0221826B128A41EA0251826B127D90
:101F800041EA0261826B9269114302689200A2F1F8
:101F9000C042C2F8041107E06FF070420168890086
:101FA000A1F1C041C1F80421704730B500210022E1
:101FB0000023446844F0080485682C43C5682C431A
:101FC00005692C43456944EA4524856944EA45315D
:101FD000C4692468C5696D6844EA0524C5692D890A
:101FE00044EA0544C5692D7B44EA0562046A246815
:101FF000056A6D6844EA0524056A2D8944EA0544AA
:10200000056A2D7B44EA05630468102C05D14FF066
:1020100020442166A266E36608E0904C21604FF000
:102020002044C4F888208D4C0C34236030BD0168F6
:1020300041F01001426841EA4221826841EA42319E
:10204000864A20321160C1680968C268526841EA54
:102050000221C268128941EA0241C268127B41EA48
:1020600002617E4A2832116001690968026952687A
:1020700041EA02210269128941EA02410269127BA6
:1020800041EA0261754A2C3211604169096842696E
:10209000526841EA02214269128941EA02414269D9
:1020A000127B41EA02614FF02042C2F8B010704743
:1020B000002101600221416000218160C160016155
:1020C00041618161C16101624FF480514162490007
:1020D00081620021C16201630F21426B1160426B7A
:1020E0005160FF21426B91600F21426BD160426BC6
:1020F0001161426B51610021426B91610F21826B32
:102100001160826B5160FF21826B91600F21826BA5
:10211000D160826B1161826B51610021826B916190
:10212000704710210160002141608160C160016140
:1021300041618161FC21C2691160C2695160C2695B
:102140009160C269D160026A1160026A5160026ADC
:102150009160026AD1607047002101604160816036
:10216000FC21C2681160C2685160C2689160C26897
:10217000D16002691160026951600269916002696F
:10218000D16042691160426951604269916042695F
:10219000D160704751B18200A2F1C042126842F092
:1021A00001038200A2F1C042136009E08200A2F1A3
:1021B000C04212682A4B1A408300A3F1C0431A6040
:1021C000704799B1102808D14FF02042126E42F0AA
:1021D00004024FF020431A661DE0204A126842F0C4
:1021E00004024FF02043C3F8802014E0102809D1E6
:1021F0004FF02042126E1A4BDB1E1A404FF0204364
:102200001A6608E0154A1268154BDB1E1A404FF09B
:102210002043C3F88020704748B110492031096835
:1022200041F004014FF02042C2F8A01009E00B4930
:10223000203109680A4AD21E11404FF02042C2F8EC
:10224000A0107047B9B110280CD14FF02042126E87
:1022500042F040024FF020431A661FE0800000A0C9
:10226000FEFF0F00724A126842F040024FF0204316
:10227000C3F8802012E0102808D14FF02042126EDF
:102280006C4B1A404FF020431A6607E0684A126808
:10229000684B1A404FF02043C3F880207047014636
:1022A0000020102903D14FF02042506F02E0604A15
:1022B00014321068704710B5F2B1102807D14FF0F2
:1022C00020435B6E0B434FF02044636632E0B0F571
:1022D000807F08D1564B1B1D1B680B434FF02044D9
:1022E000C4F8843026E0524B24331B680B434FF074
:1022F0002044C4F8A4301DE0102807D14FF020433B
:102300005B6E8B434FF02044636613E0B0F5807F33
:1023100008D1474B1B1D1B688B434FF02044C4F86A
:10232000843007E0424B24331B688B434FF020443A
:10233000C4F8A43010BD10B5024600200023102AB6
:1023400003D14FF02044636E09E0B2F5807F03D1E2
:10235000374C241D236802E0354C2434236803EAFB
:1023600001040CB1012000E0002010BD102807D1AD
:102370004FF02042526E8A434FF020435A6613E0DA
:10238000B0F5807F08D12A4A121D12688A434FF0A7
:102390002043C3F8842007E0254A243212688A4388
:1023A0004FF02043C3F8A420704770B502460020C8
:1023B000002300240025102A03D14FF02046736E1D
:1023C00009E0B2F5807F03D1194E361D336802E073
:1023D000174E2436336803EA010403EAD10514B129
:1023E0000DB1012000E0002070BD102808D14FF091
:1023F0002042526E22EAD1024FF020435A6615E085
:10240000B0F5807F09D10A4A121D126822EAD10272
:102410004FF02043C3F8842008E0054A24321268B4
:1024200022EAD1024FF02043C3F8A42070470000F5
:10243000800000A0BFFF0F0010B50446CC488442C6
:1024400008D10121042000F02DFB0021042000F020
:1024500029FB46E0C748844208D10121082000F04A
:1024600021FB0021082000F01DFB3AE0C248844215
:1024700008D10121102000F015FB0021102000F0F0
:1024800011FB2EE0BD48844208D10121202000F03C
:1024900009FB0021202000F005FB22E0B84884421F
:1024A00008D10121402000F0FDFA0021402000F079
:1024B000F9FA16E0B348844208D10121802000F0E7
:1024C000F1FA0021802000F0EDFA0AE0AE488442E3
:1024D00007D10121801500F0E5FA0021A01500F0D8
:1024E000E1FA10BD10B50121084600F0DBFA002129
:1024F000012000F0D7FA10BD2DE9F0410246002579
:102500000026002000230024002791F803C00CF0CF
:102510000F0591F803C00CF0100CBCF1000F03D0B4
:1025200091F802C04CEA050591F800C0BCF1000F1B
:1025300031D0146800202BE04FF0010C0CFA00F3AE
:10254000B1F800C00CEA03069E4220D183004FF090
:102550000F0C0CFA03F7BC4305FA03FC4CEA040425
:1025600091F803C0BCF1280F06D14FF0010C0CFA12
:1025700000FCC2F814C00AE091F803C0BCF1480F97
:1025800005D14FF0010C0CFA00FCC2F810C0401C41
:102590000828D1D31460B1F800C0BCF1FF0F34DDBE
:1025A000546800202EE000F1080C4FF0010808FAF2
:1025B0000CF3B1F800C00CEA03069E4221D183005F
:1025C0004FF00F0C0CFA03F7BC4305FA03FC4CEA7E
:1025D000040491F803C0BCF1280F05D100F1080CE8
:1025E00008FA0CF8C2F8148091F803C0BCF1480F47
:1025F00007D100F1080C4FF0010808FA0CF8C2F8F6
:102600001080401C0828CED35460BDE8F0814FF6FE
:10261000FF710180022181700421C1707047024660
:10262000002093680B400BB1012000E000207047B0
:102630000146886880B2704702460020D3680B408C
:102640000BB1012000E0002070470146C86880B24D
:10265000704701617047416170470AB1016100E054
:1026600041617047C16070474FF480320A43826114
:102670008161826182698269704702460020434B12
:1026800018684FF68073184040EA021008433F4B29
:10269000186070473E49C8617047F0B50A4600238C
:1026A00000240021002500F00046B6F1004F02D1C1
:1026B000364EF16901E0354E7168C0F3034583B2CF
:1026C00000F44016B6F5401F08D121F070612F4E7E
:1026D000766826F070662D4F7E6012E000F480165A
:1026E000B6F5801F06D1032606FA05F4A14341F092
:1026F000706106E0460D360103FA06F6B14341F07B
:10270000706122B1460D360103FA06F6314300F03E
:102710000046B6F1004F02D11C4EF16101E01B4EA4
:102720007160F0BD30B500228B071C0F0F2303FA38
:1027300004F2164B08338C1053F824309343134C97
:1027400008348D1044F8253023468C1053F824307B
:102750008C07240F00FA04F423430C4C08348D102A
:1027600044F8253030BD0A49DC310860704700006C
:1027700000080140000C014000100140001401401D
:1027800000180140001C01400020014000000140F1
:1027900000002042DF48006840F00100DD49086089
:1027A00008464068DC490840DA4948600846006845
:1027B000DA490840D74908600846006820F48020BC
:1027C00008600846406820F4FE0048604FF41F008F
:1027D00088607047CF49096821F48031CD4A116083
:1027E0001146096821F480211160B0F5803F03D0C3
:1027F000B0F5802F0ED106E0C649096841F480315A
:10280000C44A116007E0C349096841F4A021C14AE4
:10281000116000E000BF00BF704710B50146002204
:10282000002300204A11012A02D1BA4C236806E095
:10283000022A02D1B74C236A01E0B64C636A01F068
:102840001F02012494401C400CB1012000E0002034
:1028500010BD38B5002000900024002500BF3120B5
:10286000FFF7DBFF05460098401C00900098B0F58C
:10287000A06F01D0002DF2D03120FFF7CEFF08B1BC
:10288000012400E00024204638BD01460020A14A72
:10289000106820F0F80040EAC10010607047A049BD
:1028A00008607047024600209A4B586820F47C105C
:1028B00042EA01031843974B5860704798490866ED
:1028C000704701460020934A506820F003000843F7
:1028D000506070478F48406800F00C007047014618
:1028E00000208C4A506820F0F00008435060704788
:1028F00001460020874A506820F4E0600843506099
:10290000704701460020834A506820F4605040EA36
:10291000C1005060704729B17E4A527A02437D4B14
:102920005A7204E07B4A527A82437A4B5A72704759
:102930007B49D8310860704701460020754A5068CD
:1029400020F440400843506070470021714A203213
:102950001170704A82F82010012802D004280AD190
:1029600004E001216B4A2032117005E00521694A1B
:102970002032117000E000BF00BF70476949086055
:1029800070476449096A0143624A116270476549A8
:1029900044390860704730B500210022002400232C
:1029A0005C4D6D6805F00C0121B1042905D00829A2
:1029B00023D105E05C4D056022E05B4D05601FE022
:1029C000544D6D6805F47012524D6D6805F48034F5
:1029D000022505EB92421CB9544D554305600BE0AE
:1029E0004C4D6D6805F400351DB1504D55430560E3
:1029F00002E04D4D5543056002E04B4D056000BFC0
:102A000000BF444D6D6805F0F0010909484D6B5C4D
:102A10000568DD4045603F4D6D6805F4E061090AD9
:102A2000434D6B5C4568DD4085603A4D6D6805F44B
:102A30006051C90A3E4D6B5C4568DD40C560354D4F
:102A40006D6805F44041890B3A4D6B5CC568B5FB78
:102A5000F3F5056130BD29B12E4A526902432D4B71
:102A60005A6104E02B4A526982432A4B5A617047EB
:102A700029B1284A92690243264B9A6104E0254A0B
:102A800092698243234B9A61704729B1214AD269E6
:102A90000243204BDA6104E01E4AD26982431D4B97
:102AA000DA61704729B11B4AD2680243194BDA60D8
:102AB00004E0184AD2688243164BDA60704729B1A5
:102AC000144A12690243134B1A6104E0114A126955
:102AD0008243104B1A6170471249403908607047B1
:102AE0000F49C86470470B49C87170470948406A6C
:102AF00040F0807007494862704701460020054A4F
:102B000092680A400AB1012000E0002070470149A4
:102B100088727047001002400000FFF8FFFFF6FEC9
:102B2000000042428004424200127A0000093D0047
:102B3000220500203205002010B50446FE488442DC
:102B400008D10121C014FFF7ADFF0021E014FFF709
:102B5000A9FFC4E0B4F1804F08D101210846FFF776
:102B6000AEFF00210120FFF7AAFFB8E0F34884423E
:102B700008D101210220FFF7A2FF00210220FFF768
:102B80009EFFACE0EE48844208D101210420FFF70B
:102B900096FF00210420FFF792FFA0E0E94884425D
:102BA00008D101210820FFF78AFF00210820FFF744
:102BB00086FF94E0E448844208D101211020FFF709
:102BC0007EFF00211020FFF77AFF88E0DF48844273
:102BD00008D101212020FFF772FF00212020FFF7FC
:102BE0006EFF7CE0DA48844208D101214014FFF7EF
:102BF00059FF00216014FFF755FF70E0D54884426B
:102C000009D10121C804FFF74DFF00214FF4002036
:102C1000FFF748FF63E0D048844209D1012108054D
:102C2000FFF740FF00214FF48010FFF73BFF56E015
:102C3000CA48844209D101214805FFF733FF00212A
:102C40004FF40010FFF72EFF49E0C548844208D139
:102C500001214020FFF733FF00214020FFF72FFF25
:102C60003DE0C048844208D101218020FFF727FFC2
:102C700000218020FFF723FF31E0BB48844208D1C8
:102C800001218015FFF71BFF0021A015FFF717FF9B
:102C900025E0B648844209D101210804FFF702FF6C
:102CA00000214FF48030FFF7FDFE18E0B048844269
:102CB00009D101214804FFF7F5FE00214FF400304F
:102CC000FFF7F0FE0BE0AB48844208D101218804F5
:102CD000FFF7E8FE00214FF48020FFF7E3FE10BD70
:102CE00000220288944B98420ED0994B98420BD008
:102CF000B0F1804F08D0914B984205D0904B98424C
:102D000002D0904B984204D14FF68F731A404B88F3
:102D10001A438D4B984207D08C4B984204D04FF603
:102D2000FF431A40CB881A4302808B8883850B8827
:102D30000385814B98420BD0854B984208D08B4B32
:102D4000984205D08A4B984202D08A4B984201D1D2
:102D50000B7A038601238382704770B5002400221A
:102D60000023058C4FF6FE7635400584028C83885F
:102D7000048B4FF68F752C40B51E2C400D882C43CC
:102D8000751E2A400D892A434D882A436A4DA84260
:102D90000BD06F4DA84208D0744DA84205D0744D99
:102DA000A84202D0734DA84213D14FF6F7752A40BE
:102DB0004D892A434FF6FB752A408D882A434FF6EA
:102DC000FF652B404FF6FF552B408D892B43CD8956
:102DD0002B4383800483CD888586028470BD70B5C3
:102DE000002400220023058C4FF6EF763540058441
:102DF000028C8388048B48F6FF752C404FF6FF4504
:102E00002C400D884FF6FF7606EA05252C434FF639
:102E1000DF752A400D8906EA05152A434D8806EA22
:102E200005152A43444DA84202D0494DA8421DD160
:102E30004FF67F752A404D894FF6FF7606EA051555
:102E40002A434FF6BF752A408D8806EA05152A43A6
:102E50004FF6FF352B404FF2FF752B408D8906EA68
:102E600085052B43CD8906EA85052B4383800483A2
:102E7000CD880587028470BD70B500240022002330
:102E8000058C4FF6FF6635400584028C8388848B61
:102E90004FF68F752C404FF6FC752C400D882C4357
:102EA0004FF6FF552A400D894FF6FF7606EA0525B5
:102EB0002A434D8806EA05252A431F4DA84202D021
:102EC000234DA8421DD14FF2FF752A404D894FF680
:102ED000FF7606EA05252A434FF6FF352A408D88FE
:102EE00006EA05252A434EF6FF752B404DF6FF7581
:102EF0002B408D8906EA05152B43CD8906EA051579
:102F00002B4383808483CD888587028470BD70B510
:102F1000002200230024058C4EF6FF763540058400
:102F2000038C8488828B48F6FF752A404FF6FF4554
:102F30002A400D8820E00000002C014000040040E1
:102F400000080040000C0040001000400014004049
:102F500000340140004C0140005001400054014049
:102F600000180040001C00400020004000400140CC
:102F700000440140004801404FF6FF7606EA05256F
:102F80002A434DF6FF752B400D8906EA05352B4384
:102F90004D8806EA05352B43FA4DA84202D0FA4D7A
:102FA000A84208D14BF6FF752C408D894FF6FF766D
:102FB00006EA85152C4384808283CD88A0F8405092
:102FC000038470BD828B4FF2FF331A408283828B61
:102FD0004FF6FF7303EA01231A4382837047F0B56B
:102FE0000C461546002200210026078C4EF6FF7C79
:102FF00007EA0C070784828B018C4FF6FF7707EAFC
:10300000043640F6FF473A404FF6FF7707EA0527B8
:103010003A434FF6FF7707EA03373A43D94FB842AE
:103020000ED0D94FB8420BD0B0F1804F08D0D74F57
:10303000B84205D0D64FB84202D0D64FB84206D1DA
:103040004DF6FF77394046F48057394305E047F69F
:10305000FF57394044F48057394382830184F0BDDF
:10306000828B4FF6F3731A408283828B0A438283EA
:103070007047F0B50C461546002200210026078C4B
:103080004FF6FF6C07EA0C070784828B018C4FF622
:10309000FF7707EA04264FF60C773A404FF6FF77A2
:1030A00007EA03172F433A43B64FB8420ED0B64F44
:1030B000B8420BD0B0F1804F08D0B44FB84205D021
:1030C000B34FB84202D0B34FB84206D14FF6FF57C4
:1030D000394046F48077394305E04FF2FF573940D5
:1030E00044F48077394382830184F0BD028B4FF230
:1030F000FF331A400283028B4FF6FF7303EA01236A
:103100001A4302837047F0B50C4615460022002191
:103110000026078C4FF6EF7C07EA0C070784028B2A
:10312000018C4FF6FF7707EA041640F6FF473A4056
:103130004FF6FF7707EA03373A434FF6FF7707EA80
:1031400005273A438F4FB8420ED08F4FB8420BD06D
:10315000B0F1804F08D08D4FB84205D08C4FB842A7
:1031600002D08C4FB84206D14FF6DF77394046F097
:103170001007394305E04FF65F77394044F01007F8
:10318000394302830184F0BD028B4FF6F3731A407A
:103190000283028B0A4302837047F0B50C46154642
:1031A00000220021068C4FF6FE773E400684028BFB
:1031B000018C4FF60C7632407E1C06EA03162E4335
:1031C0003243704EB0420ED06F4EB0420BD0B0F1D1
:1031D000804F08D06D4EB04205D06D4EB04202D047
:1031E0006C4EB04206D14FF6FD76314044F00106F8
:1031F000314305E04FF6F576314044F001063143A6
:1032000002830184F0BD70B505460C465D488542D9
:103210000ED05D4885420BD0B5F1804F08D05B4899
:10322000854205D05A48854202D05A48854200D18D
:1032300000E000BF208850B92389A2886188284611
:10324000FFF7ABFFE1882846FFF79EFF25E02088C7
:1032500004280AD12389A28861882846FFF753FFF2
:10326000E1882846FFF742FF17E0208808280AD1A6
:103270002389A28861882846FFF7FBFEE18828465B
:10328000FFF7EEFE09E02389A28861882846FFF750
:10329000A6FEE1882846FFF795FE70BD2DE9F041B6
:1032A00005460C4600260127608808B9022600E082
:1032B0000026A088012801D1022700E001272088EC
:1032C000A0B92389A28861882846FFF766FFE188B4
:1032D0002846FFF759FF23893A4631462846FFF72B
:1032E00012FFE1882846FFF701FF13E02389A28837
:1032F00061882846FFF707FFE1882846FFF7F6FEBA
:1033000023893A4631462846FFF747FFE188284699
:10331000FFF73AFFBDE8F0810A884B881A438B8893
:103320001A43CB881A430B891A434B891A438B895A
:103330001A43A0F8442070474FF6FF7181800021A6
:103340000180C1804180017270470021018041806D
:103350008180C180018141818181C18170470021CB
:1033600001804180012181800021C180018170475D
:103370000021018041808180C18001814181818162
:1033800070470000002C0140003401400004004060
:1033900000080040000C004021B1028842F0010208
:1033A000028004E002884FF6FE731A4002807047E4
:1033B00031B1B0F8442042F40042A0F8442005E0C6
:1033C000B0F84420C2F30E02A0F8442070471AB1AE
:1033D00083890B43838102E083898B438381704718
:1033E0008182704741EA0203A0F8483070471AB161
:1033F00083890B43838102E083898B4383817047F8
:1034000001894FF6F8721140018170470A46002188
:1034100001894FF68F73194011430181704730B510
:1034200004460D4629462046FFF7F0FF208940F06C
:103430000700208130BD2DE9F04104460D461646B7
:103440001F46602D06D13B46012231462046FFF73C
:103450005AFE05E03B46012231462046FFF79DFE1D
:1034600029462046FFF7D2FF208940F0070020813F
:10347000BDE8F08130B50C4600210189C9B24FF694
:10348000FF7505EA0325154325432943018130BD16
:103490002DE9F04105460E4617469846002443465E
:1034A0003A4631462846FFF7E5FF2C894FF6F8707B
:1034B000044044F007044FF68F70044044F0700459
:1034C0002C81BDE8F081F0B504460D4616461F4636
:1034D0003B46324629462046FFF7CCFF208940F480
:1034E00080402081F0BD0185828270470A4600211C
:1034F00001884FF68F731940114301807047F0B572
:103500000C4615461E460021002200230189028B2D
:10351000038C4FF6F877394021434FF6FC473A4089
:1035200040F201173A434FF6DD773B404FF6FF7705
:1035300007EA06172F433B43018102830384F0BD52
:103540000A460021018B4FF68F7319401143018306
:1035500070470A460021018B48F6FF7319404FF669
:10356000FF7303EA02231943018370470A460021CF
:10357000818B4FF68F7319401143818370470A4640
:103580000021818B48F6FF7319404FF6FF7303EA61
:10359000022319438183704721B1028842F08002DF
:1035A000028004E002884FF67F731A400280704761
:1035B00021B1828842F00402828004E082884FF6C2
:1035C000FB731A408280704721B1828842F0080262
:1035D000828004E082884FF6F7731A408280704739
:1035E00021B1828842F00102828004E082884FF695
:1035F000FE731A40828070470A460021018B4FF605
:10360000F77319401143018370470A460021018B6B
:103610004FF2FF7319404FF6FF7303EA0223194379
:10362000018370470A460021818B4FF6F7731940DA
:103630001143818370470A460021818B4FF2FF734B
:1036400019404FF6FF7303EA022319438183704741
:103650000A460021018B4FF6FB7319401143018389
:1036600070470A460021018B4FF6FF3319404FF691
:10367000FF7303EA02231943018370470A460021BE
:10368000818B4FF6FB7319401143818370470A46C3
:103690000021818B4FF6FF3319404FF6FF7303EA89
:1036A00002231943818370470A460021018B4FF69C
:1036B0007F7319401143018370470A460021018B33
:1036C000C1F30E014FF6FF7303EA0223194301838E
:1036D00070470A460021818B4FF67F7319401143D2
:1036E000818370470A460021818BC1F30E014FF69A
:1036F000FF7303EA02231943818370470A460021BE
:10370000018C4FF6FD7319401143018470470A463E
:103710000021018C4FF6F773194011430184704763
:103720000A460021018C4FF6DF7319404FF6FF73F4
:1037300003EA02131943018470470A460021018CF1
:103740004FF67F7319404FF6FF7303EA02131943D4
:10375000018470470A460021018C4FF6FF5319403F
:103760004FF6FF7303EA02231943018470470A46A8
:103770000021018C4FF2FF7319404FF6FF7303EAEB
:1037800002231943018470470A460021018C4DF63B
:10379000FF7319404FF6FF7303EA023319430184A4
:1037A000704730B5002301248C40A3B2048C9C43A5
:1037B0000484048C02FA01F5ADB22C43048430BDBC
:1037C00030B5002304248C40A3B2048C9C430484B1
:1037D000048C02FA01F5ADB22C43048430BD70B5FF
:1037E0000346002000241846183001258D40ACB255
:1037F0001D8CA5431D8409B1082909D100EB610086
:10380000056825F0700505600568154305600EE044
:103810000D1FC5F34E052844056825F4E0450560F5
:1038200005684FF6FF7606EA02263543056070BD4F
:1038300021B1028842F00202028004E002884FF6C1
:10384000FD731A400280704721B1028842F00402E1
:10385000028004E002884FF6FB731A400280704732
:1038600021B1828842F08002828004E082884FF693
:103870007F731A408280704702884FF6F7731A40B0
:10388000028002880A430280704782884FF68F7355
:103890001A40828082880A438280704702894FF6EC
:1038A000F8731A40028102890A4302817047028933
:1038B0004FF67F731A40028102890A4302817047E2
:1038C0008184704781857047818670470187704782
:1038D00081877047A0F84010704702884FF6FF4379
:1038E0001A40028002880A43028070470146888E8F
:1038F00070470146088F70470146888F7047014620
:10390000B1F8400070470146888C70470146088D29
:10391000704702460020138A0B400BB1012000E0E3
:1039200000207047CA430282704730B5024600202B
:1039300000230024158A05EA0103958905EA01049C
:1039400013B10CB1012000E0002030BDCA43028257
:103950007047000010B50446FB48844209D101219C
:103960008803FFF79FF800214FF48040FFF79AF893
:1039700032E0F648844209D101214804FFF79FF85C
:1039800000214FF40030FFF79AF825E0F048844218
:1039900009D101218804FFF792F800214FF480201B
:1039A000FFF78DF818E0EB48844209D10121C804E3
:1039B000FFF785F800214FF40020FFF780F80BE0B7
:1039C000E548844208D101210805FFF778F8002175
:1039D0004FF48010FFF773F810BD2DE9F04786B063
:1039E00005460E460024A24600BFA1460027B08926
:1039F00000B100BF2F462C8A4CF6FF700440F088BF
:103A000004432C82AC894EF6F3100440B08831890F
:103A10000843718908430443AC81AC8A4FF6FF40E8
:103A20000440B0890443AC8201A8FEF7B4FFC64845
:103A3000874202D1DDF810A001E0DDF80CA0A889D2
:103A400000F4004040B10AEBCA0000EB0A103168F4
:103A50004900B0FBF1F807E00AEBCA0000EB0A10DE
:103A600031688900B0FBF1F86420B8FBF0F0040184
:103A70002009642101FB1089A88900F4004040B1AD
:103A8000322000EBC900B0FBF1F000F00700044366
:103A900008E0322000EB09106421B0FBF1F000F0E7
:103AA0000F0004432C8106B0BDE8F0874FF4165197
:103AB000016000218180C18001810C2141810021B0
:103AC0008181704710B502460020108A4FF2FF0333
:103AD00018400B884C8823438C882343CC8823438D
:103AE0001843108210BD0021018041808180C18077
:103AF000704721B1828942F40052828104E08289B8
:103B00004DF6FF731A4082817047F0B503460024DA
:103B100000260025002040F66A17B94200D100BFF8
:103B20001846C1F3421401F01F06012707FA06F5F3
:103B3000012C01D10C3004E0022C01D1103000E046
:103B400014301AB107682F43076002E00768AF43DB
:103B50000760F0BD1AB1838A0B43838202E0838A37
:103B60008B4383827047028A4FF6F0731A400282B9
:103B7000028A0A430282704782894FF2FF731A4019
:103B8000828182890A438281704721B1828942F011
:103B90000202828104E082894FF6FD731A4082811D
:103BA0007047028A4FF6DF731A400282028A0A4384
:103BB0000282704721B1028A42F48042028204E00C
:103BC000028A4BF6FF731A4002827047C1F3080263
:103BD0008280704701468888C0F308007047818959
:103BE00041F0010181817047028BD2B20283028BC6
:103BF00042EA012202837047028B02F47F42028371
:103C0000028B0A430283704721B1828A42F020026C
:103C1000828204E0828A4FF6DF731A408282704704
:103C200021B1828A42F01002828204E0828A4FF639
:103C3000EF731A408282704721B1828A42F00802F3
:103C4000828204E0828A4FF6F7731A4082827047BC
:103C500021B1828942F40042828103E08289C2F369
:103C60000E028281704721B1828A42F40062828210
:103C700004E0828A4FF2FF731A4082827047828A80
:103C80004FF6FB731A408282828A0A43828270470F
:103C900021B1828A42F00202828204E0828A4FF6D7
:103CA000FD731A408282704702460020B1F5007F02
:103CB00000D100BF13880B400BB1012000E00020B1
:103CC000704701F40072B2F5007F00D100BFCA4313
:103CD0000280704770B502460024002300250020B2
:103CE00040F66A16B14200D100BFC1F3421501F09F
:103CF0001F03012606FA03F3012D02D196893340F2
:103D000006E0022D02D1168A334001E0968A334044
:103D10000C12012606FA04F41688344013B10CB1D3
:103D2000012000E0002070BD10B50022002340F605
:103D30006A14A14200D100BF0A1201249440A3B228
:103D4000DC43048010BD0000003801400044004006
:103D500000480040004C00400050004030B589B0A1
:103D600004460D4601210820FEF782FE01210420B1
:103D7000FEF78BFE18208DF823004FF47070ADF81D
:103D8000200003208DF8220008A95648FEF7B4FB56
:103D90000020ADF81A00ADF81600ADF81850ADF8D7
:103DA000144005A95048FEF79BFF6020ADF80400C1
:103DB0000020ADF80C000120ADF806000020ADF8A1
:103DC0000A0001A94848FEF7C8FF01A94648FFF7C5
:103DD00006F801A94448FFF74FF801A94248FFF748
:103DE00096F808214048FFF707FC08213E48FFF7F6
:103DF0000CFC08213C48FFF715FC08213A48FFF766
:103E00001AFC01213848FFF7C7FB01213648FFF7AC
:103E1000C3FA09B030BD30B589B004460D46012162
:103E200040F60400FEF724FE18208DF823004FF41E
:103E30001060ADF8200003208DF8220008A92B485F
:103E4000FEF75AFB05A8FFF777FA0020ADF81A0035
:103E5000ADF81600ADF81850ADF8144005A9244887
:103E6000FEF73EFF6020ADF804000020ADF80C0026
:103E70000120ADF806000020ADF80A0001A91C4899
:103E8000FFF745F801211A48FFF792FA0821184870
:103E9000FFF7D1FB01211648FFF77EFB01211448F3
:103EA000FFF77AFA09B030BD3EB504460D46012150
:103EB0000220FEF7EAFDADF80450ADF80040002006
:103EC000ADF80600ADF8020069460A48FEF708FFA3
:103ED00020210848FFF7D9FC01210648FFF75CFACA
:103EE0003EBD0000000C01400008004000080140F9
:103EF000002C01400004004008B501216020FEF7BD
:103F0000B7FD10208DF8030003208DF802004FF458
:103F10008050ADF800006946FE48FEF7EDFA022039
:103F2000ADF800006946FC48FEF7E6FA18208DF867
:103F3000030003208DF802008020ADF800006946E0
:103F4000F448FEF7D9FA1020ADF800006946F148B0
:103F5000FEF7D2FA2020ADF800006946ED48FEF7E2
:103F6000CBFA4FF40060ADF800006946E948FEF76F
:103F7000C3FA03208DF8020018208DF803004FF4D7
:103F80008040ADF800006946E248FEF7B5FA4FF40C
:103F90000040ADF800006946DE48FEF7ADFA0120AA
:103FA000ADF800006946DB48FEF7A6FA0220ADF83E
:103FB00000006946D748FEF79FFA8020ADF8000060
:103FC0006946D548FEF798FA4FF48070ADF80000C6
:103FD0006946D148FEF790FA4FF40070ADF8000042
:103FE0006946CD48FEF788FA4FF48060ADF80000CE
:103FF0006946C948FEF780FA4FF40060ADF800004A
:104000006946C548FEF778FA4FF48050ADF80000D5
:104010006946C148FEF770FA4FF40050ADF8000051
:104020006946BD48FEF768FA4FF48040ADF80000DD
:104030006946B948FEF760FA4FF40040ADF8000059
:104040006946B548FEF758FA4FF48070ADF80000A5
:104050006946B048FEF750FA4FF40070ADF8000022
:104060006946AC48FEF748FA4FF48060ADF80000AE
:104070006946A848FEF740FA08BD00B597B001218F
:104080000802FEF7E8FC01200190042003900020C4
:1040900002900490059006904FF080500790002009
:1040A0000890099008200A9010200B9000200C9096
:1040B0000D900E900F9010904FF4805011900020B2
:1040C00012901390149001A81590169008A8FDF76F
:1040D000F9FE01210020FEF75DF817B000BD01B523
:1040E00002E00098401E009000980028F9D108BD19
:1040F00010B5CF2002F0D3FC002002F0D5FC8120C7
:1041000002F0D2FC302002F0CFFCED2002F0C7FC20
:10411000642002F0C9FC032002F0C6FC122002F069
:10412000C3FC812002F0C0FCE82002F0B8FC85202E
:1041300002F0BAFC102002F0B7FC782002F0B4FCC8
:10414000CB2002F0ACFC392002F0AEFC2C2002F0B7
:10415000ABFC002002F0A8FC342002F0A5FC0220F9
:1041600002F0A2FCF72002F09AFC202002F09CFC56
:10417000EA2002F094FC002002F096FC002002F0FD
:1041800093FCB12002F08BFC002002F08DFC1B2080
:1041900002F08AFCB62002F082FC0A2002F084FCC5
:1041A000A22002F081FCC02002F079FC352002F050
:1041B0007BFCC12002F073FC112002F075FCC520CD
:1041C00002F06DFC452002F06FFC452002F06CFC13
:1041D000C72002F064FCA22002F066FCF22002F08C
:1041E0005EFC002002F060FC262002F058FC01205A
:1041F00002F05AFCE02002F052FC0F2002F054FCC6
:10420000262002F051FC242002F04EFC0B2002F08C
:104210004BFC0E2002F048FC092002F045FC542023
:1042200002F042FCA82002F03FFC462002F03CFCD9
:104230000C2002F039FC172002F036FC092002F0B5
:1042400033FC0F2002F030FC072002F02DFC002090
:1042500002F02AFCE12002F022FC002002F024FC03
:10426000192002F021FC1B2002F01EFC042002F0A9
:104270001BFC102002F018FC072002F015FC2A207D
:1042800002F012FC472002F00FFC392002F00CFC77
:10429000032002F009FC062002F006FC062002F0D2
:1042A00003FC302002F000FC382002F0FDFB0F2060
:1042B00002F0FAFB362002F0F2FBC82002F0F4FB19
:1042C0002A2002F0ECFB002002F0EEFB002002F0BE
:1042D000EBFB002002F0E8FBEF2002F0E5FB2B20D7
:1042E00002F0DDFB002002F0DFFB002002F0DCFB2F
:1042F000012002F0D9FB3F2002F0D6FB3A2002F069
:10430000CEFB552002F0D0FB112002F0C8FB034881
:1043100006E000000014014000180140FCBF02004C
:10432000FFF7DDFE292002F0BAFB10BD10B50446F0
:104330002CB14FF48051F948FEF78DF904E04FF4A9
:104340008051F648FEF785F910BD10B50221F448FA
:10435000FEF781F940F6FF20FFF7C1FE0221F04889
:10436000FEF777F940F6FF20FFF7B9FE10BD70B5F4
:104370000446072C00DD70BD2546204604EBD071B5
:104380004910A4EB410139B9F020E64908804FF407
:10439000A070E549088006E04FF4A070E14908806C
:1043A000F020E1490880362002F079FB082141EA3B
:1043B000441002F079FB2A2002F071FB002002F089
:1043C00073FB002002F070FBD6490988491EC1F337
:1043D000072002F069FBD3490978491EC8B202F0F0
:1043E00063FB40F2AB2002F05AFB002002F05CFBC2
:1043F000002002F059FBCC490988491EC1F307206F
:1044000002F052FBC8490978491EC8B202F04CFBC1
:104410002C2002F044FB00BFADE710B5FFF76CFDA8
:10442000FFF72BFE0120FFF781FFFFF78EFFFFF75D
:104430005FFE0620FFF79BFF10BD2DE9F04104460B
:104440000D4616461F462A2002F029FB201202F0D4
:104450002BFBE0B202F028FBA119491EC1F30F208B
:1044600002F022FBA119491EC8B202F01DFB2B204D
:1044700002F015FB281202F017FBE8B202F014FB61
:10448000E919491EC1F30F2002F00EFBE919491E7C
:10449000C8B202F009FBBDE8F08170B504460D46D4
:1044A0002B46224600210846FFF7C7FF2C2002F0CA
:1044B000F6FA002604E047F67C0002F0F5FA761CD6
:1044C00004FB05F0B042F6D870BD70B504460D4649
:1044D00001231A4629462046FFF7AFFF70BD70B58D
:1044E00004460D4600262C2002F0D9FA00BF03E056
:1044F000284602F0D9FA761CA642F9D370BD2DE900
:10450000F04106460F4614461D462B4622463946C4
:104510003046FFF792FF04FB05F084490988FFF756
:10452000DEFFBDE8F08170B505460C467D48008889
:1045300085420CDA7C480088844208DA2146284605
:10454000FFF7C3FF7A4801880120FFF7C8FF70BD5D
:104550002DE9FF4F83B081464FF0000AD3460598FE
:10456000A0EB090504990698461ACDF80490049822
:104570000090002D01DD012705E00DB9002702E0C4
:104580004FF0FF376D42002E02DD4FF0010806E0CC
:1045900016B94FF0000802E04FF0FF387642B542FE
:1045A00001DD2C4600E034460020029019E0DDE9F0
:1045B0000010FFF7B8FFAA44B344A24505DDAAEBFB
:1045C000040A0198384480B20190A34505DDABEBA5
:1045D000040B0098404480B200900298401C80B2C6
:1045E0000290611C02988842E1DD07B0BDE8F08FBF
:1045F0002DE9F04104460D4616461F46DDF81880A9
:10460000B8F1000F0CD03B46324629462046FFF752
:1046100014FF06FB07F046490988FFF760FF27E013
:10462000A019401E82B22B4629462046FFF790FF74
:10463000E819401E83B2A019401E82B2E819401E3C
:1046400081B22046FFF784FFE819401E83B222465C
:1046500029462046FFF77CFFE919491E8BB2A119B4
:10466000491E8AB2A119491E88B22946FFF770FF78
:10467000BDE8F0812DE9F05F05460E4691469B4668
:1046800000240FFA89F70320A0EB49000FFA80FA03
:1046900094E0BBF1000F4DD0A0463BE006EB0802D2
:1046A00091B22A1990B2FFF73EFF06EB080291B2D1
:1046B0002A1B90B2FFF737FF321991B2A5EB08021F
:1046C00090B2FFF730FF321B91B2A5EB080290B217
:1046D000FFF729FFA6EB080291B22A1B90B2FFF761
:1046E00022FFA6EB080291B22A1990B2FFF71BFF36
:1046F000321B91B205EB080290B2FFF714FF32199A
:1047000091B205EB080290B2FFF70DFF08F101002E
:104710000FFA80F8B845C1DD3CE00000001401400C
:104720000018014040050020420500203E05002001
:104730003C050020F21991B22A1990B2FFF7F3FE5E
:10474000F21991B22A1B90B2FFF7EDFE321991B225
:10475000EA1B90B2FFF7E7FE321B91B2EA1B90B260
:10476000FFF7E1FEF21B91B22A1B90B2FFF7DBFECE
:10477000F21B91B22A1990B2FFF7D5FE321B91B20B
:10478000EA1990B2FFF7CFFE321991B2EA1990B24E
:10479000FFF7C9FE601C04B2BAF1000F05DAA000F1
:1047A000801D50440FFA80FA07E0E01B80000A30B9
:1047B00050440FFA80FA781E07B200BFBC427FF760
:1047C00068AFBDE8F09F56490860704754480068DC
:1047D0007047544A1080544A118070472DE9F05FA9
:1047E000804689461646A6F120001FFA80FA4C49F9
:1047F000096889884A4A1268D28801FB02F0C11709
:1048000000EB5171C1F3C7074548006800680AFB17
:10481000070B43480068C3884148006882884946BE
:104820004046FFF70AFE2C2002F039F9002416E07A
:10483000002510E01BF8040080212941084020B128
:104840003848008802F030F903E03748008802F069
:104850002BF9681CC5B2082DECDB601CC4B2BC424D
:10486000E6DBBDE8F09F70B504460D46002624E067
:1048700030462B490968898808442C4909888842B0
:1048800005DD002626480068C088204484B2204602
:1048900023490968C988084425490988884201DDF7
:1048A000002600242A7821463046FFF797FF6D1C2A
:1048B0001B4800688088304486B228780028D7D109
:1048C00070BD70B505460E46144624E028461449CE
:1048D00009688988084415490988884205DD00254A
:1048E0000F480068C088304486B230460C490968D9
:1048F000C98808440E490988884201DD0025002640
:10490000227831462846FFF769FF641C0448006896
:104910008088284485B220780028D7D170BD000057
:10492000380500203C0500203E0500204005002001
:1049300042050020012802D0022802D100E001E057
:1049400000E000BF00BF70470121016032214160DB
:104950000021816001210162002105E0002300F1B6
:104960000C0242F82130491C0529F7DB00210166C1
:1049700000BF05E0002300F1640222F81130491C59
:10498000B1F5806FF6DB704710B5A748FFF71BFF46
:104990004FF4A073F02200210846FFF74EFDA3A2BA
:1049A00010213220FFF78DFFA5A222217820FFF7EA
:1049B00088FFA4A236214620FFF783FFA5A2F0219D
:1049C0005020FFF77EFFA6A24FF482714B20FFF725
:1049D00078FF10BD10B59448FFF7F5FE4FF4A073B3
:1049E000F02200210846FFF728FDA0A21021322066
:1049F000FFF767FF9F48A0A10268243002F05AF831
:104A00009C4A243210217820FFF75BFF9DA23021C1
:104A10003220FFF756FF97489CA14268243002F0ED
:104A200049F8944A243230217820FFF74AFF9AA2AD
:104A300050213220FFF745FF8E4899A1826824302B
:104A400002F038F88B4A243250217820FFF739FFE2
:104A500096A278215A20FFF734FF97A28C21462096
:104A6000FFF72FFF834896A1C268243002F022F896
:104A7000804A24328C217820FFF723FF93A29C21C7
:104A80004620FFF71EFF7B488DA10269243002F00B
:104A900011F8784A24329C217820FFF712FF8DA26A
:104AA000AC214620FFF70DFF724885A142692430F2
:104AB00002F000F86F4A2432AC217820FFF701FFA2
:104AC00086A2BE214620FFF7FCFE6A487CA18269CF
:104AD000243001F0EFFF674A2432BE217820FFF72F
:104AE000F0FE80A2CE214620FFF7EBFE614874A1C4
:104AF000C269243001F0DEFF5E4A2432CE217820E4
:104B0000FFF7DFFE79A2F0214620FFF7DAFE5948D1
:104B100078A1026A243001F0CDFF564A2432F021F8
:104B20007820FFF7CEFE002405E0A0B24FF482719A
:104B3000FFF7F9FC641CF02CF7DB4FF6FF714FF424
:104B40007840FFF746FE6C480078F02809D1002035
:104B5000694908703223F0224FF48771FFF7CFFCC8
:104B600004E065480078401C63490870414880892A
:104B7000C00000F58C7081B25F480078FFF7D3FC6D
:104B80004FF6FF710020FFF724FE10BD10B5002086
:104B9000FCF729FC012802D002280CD105E0354899
:104BA0000068401C3349086009E032484068401DF5
:104BB0003049486003E00A202E49886000BF00BFEA
:104BC0002C480068642803DD00202A49086006E0BC
:104BD00028484068642802DD00202649486010BD4E
:104BE00010B5464800786E2803D10020434908706C
:104BF00004E042480078401C404908703F48007873
:104C00000A30C2B20A2305213C480078FCF79EFA1C
:104C1000FCF74CFB394800780A30C1B237480078BD
:104C2000FCF74CFA10BD0000480500204A69616E8F
:104C300067737520556E69766572736974790000C3
:104C40004F46000053434920616E64205445434859
:104C50000000000046616E675969706569000000D8
:104C600053747564656E742059657300467265717E
:104C70003A00000068050020256420202020206BD9
:104C8000485A0000447574793A00000025642020D9
:104C9000202020252500000054656D703A0000009A
:104CA0002564202020202043000000004861726D10
:104CB0006F6E6963000000003073743A00000000FA
:104CC0002564202020202056000000003173743A13
:104CD000000000003273743A000000003373743A2D
:104CE000000000003473743A000000004164633A2D
:104CF0000000000025642000440500204505002038
:104D000000B593B001210846FDF7A5FE01214FF43F
:104D10000470FDF7ADFE5E48FCF75EFF5D48019054
:104D20005D480290002003904FF4806004900020C2
:104D30000590802006904000079080000890202079
:104D4000099000020A9000200B9001A95048FCF73E
:104D5000E5FF01214E48FDF70CF80B208DF83000DF
:104D600002208DF8310000208DF8320001208DF8EE
:104D700033000CA8FCF79FFC0220FDF748F8012245
:104D800002214348FDF701F80220ADF84800002059
:104D90008DF84B0003208DF84A0012A93F48FDF71B
:104DA000ABFB4FF40040FDF7C7FD3A484C38FCF729
:104DB000EBFC00200D9001208DF8440000208DF8C0
:104DC00038008DF839004FF400200F90002010902B
:104DD0000DA930484C38FCF7FEFC072301220B21BB
:104DE0002C484C38FCF78FFD01212A484C38FCF741
:104DF0001EFD012127484C38FCF724FD25484C387E
:104E0000FCF737FD00BF23484C38FCF737FD00287E
:104E1000F9D120484C38FCF73BFD00BF1D484C3809
:104E2000FCF73BFD0028F9D101211A484C38FCF76A
:104E3000C6FD13B000BD10B50220FCF7D4FF30B1A1
:104E400001201549643908660220FCF7E0FF10BD17
:104E500010B54FF408711248FCF7A6FE012810D1D6
:104E600010480088401C0F490880084600880A281E
:104E700007D1002008800A48FCF7ACFD06496439D8
:104E800008624FF408710648FCF7A0FE10BD000050
:104E9000080002404C240140CC05002000100140D5
:104EA00000280140600500202DE9F04F89B0002462
:104EB0005EE0434830F824000FFA80F9404850F88B
:104EC0002400000C0FFA80FA484601F0C5FB80462A
:104ED0004FF0894101F0C8F907464FF08E4101F0CB
:104EE000F5F90546504601F0B7FB80464FF0894181
:104EF00001F0BAF907464FF08E4101F0E7F9064696
:104F00003146304601F0B0F929460290284601F0BA
:104F1000ABF90190029901F04FF9039001F00FFCF9
:104F2000CDE9040101F09FFE0022264BCDE90601E8
:104F300001F023FB074601F02DFC83465CB94FF0DE
:104F40008E41584601F090F9074601F0ACFB1E492E
:104F500041F824000AE04FF08F41584601F084F9EF
:104F6000074601F0A0FB184941F82400601C84B2F8
:104F7000B4F5007F9DDB09B0BDE8F08F002007E0AD
:104F8000124931F81010124A42F82010411C88B220
:104F9000B0F5806FF4DB704710B500210D48FCF7C9
:104FA00046FCFFF7EBFF4FF480620949044800F02C
:104FB00013F8FFF779FF01210648FCF738FC10BD14
:104FC000142300200000904014330020CC05002062
:104FD00014130020002401402DE9F04F4FF0000C85
:104FE0004FF0000301EB9C5EBEF90250BEF9004099
:104FF0000EF5806EBEF90290BEF900800EF5806E4F
:10500000BEF90270BEF900600EF5806EBEF902B006
:10501000BEF900A00EF5806ED044D944A8EB4A0A30
:10502000A9EB4B0B4FEAA4044FEAA50504EBA60439
:1050300005EBA705A4EB6606A5EB670704EBA80440
:1050400005EBA905A4EB6808A5EB690906EBAB061F
:10505000A7EBAA07A6EB6B0B07EB6A0A458020F8C3
:10506000044B478020F8046BA0F8029020F8048BD2
:10507000A0F802A020F804BB03F1010393FAA3FCFB
:10508000B3F5807FAED1A0EB82014FF0100312097F
:105090000FF2341000F1000006B403EB430C61443E
:1050A000A2F5803202EB8332B1F90250B1F900402F
:1050B000A1EB0301B0F902B0B0F900A000F10400C7
:1050C000A5EB040E0EFB0BFC0AEB4B0E05FB0ACB0B
:1050D00004FB0ECAB1F90250B1F90040A1EB030183
:1050E000B0F90290B0F9008000F10400A5EB040EC5
:1050F0000EFB09FC08EB490E05FB08C904FB0EC8B2
:10510000B1F90250B1F90040A1EB0301B0F902700E
:10511000B0F9006000F10400A5EB040E0EFB07FCE3
:1051200006EB470E05FB06C704FB0EC6B1F902509D
:10513000B1F9004001F10001D044D944A8EB4A0A7A
:10514000A9EB4B0B4FEAA4044FEAA50504EB264458
:1051500005EB2745A4EBE636A5EBE73704EB28443F
:1051600005EB2945A4EBE838A5EBE93906EB2B461E
:10517000A7EB2A47A6EBEB3B07EBEA3A4D800C8006
:1051800019444F800E801944A1F80290A1F80080C4
:105190001944A1F802A021F804BBB2F5803283DAE9
:1051A00003EB430C6144A2F101025FEA024E18BF17
:1051B000A0EB0C007FF476AF06BC4FEA83039208A5
:1051C0007FF46AAFBDE8F08F0040000000400000AF
:1051D000004000005DDD213BA3227E180000412D30
:1051E0007EA5412D0000412D00C000405DDD82E71D
:1051F0005DDD213B7EA5412D004000000040000008
:1052000000400000AA2A94126B39460649327C0CF1
:10521000A8118E2349327C0CA3227E1821F7793104
:10522000AA2A9412A8118E235DDD213BA3227E18A9
:105230000000412D95C6B13F461A2B1E58EE37355A
:10524000BEB4C53EA8118E235DDD213B63A9713834
:10525000DF089A28B7CDC53E7EA5412D0000412D1F
:1052600000C0004063A92B1E21F77931BEB4C53EB2
:10527000BEB47C0C58EE373561AC213B95C6BAF90B
:10528000BAE571383BA737355DDD82E75DDD213B4F
:105290007EA5412D21F766D756D53F3D3BA78E23EE
:1052A000A811C9CAB7CDC53E61AC7E18AA2AC1C231
:1052B00095C6B13FBEB47C0C004000000040000029
:1052C000004000001E3BB504693E9201C83C240327
:1052D000EB356409C83C24036B3946066C30060E76
:1052E0001E3BB504EB356409AA2A94126B394606B5
:1052F00049327C0CAE240917AF37D607882E8D0FA4
:105300007E1E5D1BEB356409AA2A941224188C1F9B
:105310001E34F10AB3269015A8118E2349327C0C55
:10532000A3227E18140B60276C30060E7E1E5D1BB8
:105330007104FB2A882E8D0F461A2B1EC7FD5A2E8C
:105340009D2C1211FE15E72021F77931AA2A94121B
:10535000A8118E2387F05334B2281314480D202649
:1053600002EAE536B3269015DF089A289CE32B392C
:10537000AE2409177104FB2A5DDD213BA3227E18B0
:105380000000412D4ED7C53C9320EF198FFB6C2FA9
:1053900078D1153E7E1E5D1B21F77931E2CB0F3FA0
:1053A000641CC61CB8F2683395C6B13F461A2B1E62
:1053B00058EE373597C1FB3F24188C1F02EAE536BB
:1053C000F0BCEC3FFE15E720BAE57138A6B8853F82
:1053D000D5133D2282E1DB39BEB4C53EA8118E2330
:1053E0005DDD213B40B1AF3D790FDA244DD9423C20
:1053F0002EAE423C480D202656D53F3D8EAB823A1C
:10540000140B602778D1153E63A97138DF089A28FC
:10541000B7CDC53EB1A71236A906CE2915CA4F3F52
:1054200078A668337104FB2A95C6B13FBCA57630D7
:105430003902212C38C3EC3F7EA5412D0000412DBF
:1054400000C00040BCA5CE29C7FD5A2EF0BCEC3FE1
:1054500078A620268FFB6C2F09BAB13FB1A73D2259
:1054600057F976304DB74F3F63A92B1E21F779319D
:10547000BEB4C53E8EABEF19ECF474325EB2153E8D
:105480002EAE9015B8F268332DB03F3D40B11211E9
:1054900087F053342EAE423CBEB47C0C58EE373508
:1054A00061AC213BA6B8D6072BEC1236C8AADB3973
:1054B000F0BC240302EAE53663A9713897C16EFE99
:1054C000DCE7B03734A8E53695C6BAF9BAE57138E5
:1054D0003BA73735E2CB0FF59CE32B3978A6683331
:1054E00078D173F082E1DB39EDA579314ED7EDEB60
:1054F0006DDF823A99A56C2F5DDD82E75DDD213B92
:105500007EA5412D9CE33AE352DBB63B99A5FB2AED
:1055100002EA19DF4DD9423CEDA59A2887F026DB37
:105520004ED7C53C78A6202621F766D756D53F3DF5
:105530003BA78E23C7FDDFD363D3AF3D34A8E7205D
:10554000710494D078D1153E63A92B1E140B8CCD19
:1055500094CF723EC8AA5D1BA811C9CAB7CDC53E7B
:1055600061AC7E18241850C8E2CB0F3F2EAE9015C8
:105570007E1E25C615CA4F3F2DB09412AE244AC4D4
:1055800051C8853F5EB28D0FAA2AC1C295C6B13FF0
:10559000BEB47C0C6C308EC1E2C4D43F4DB76409FC
:1055A000EB35B1C038C3EC3F09BA46061E3B2CC0F0
:1055B00097C1FB3FF0BC2403004000000040000006
:1055C00000400000D03E2E019B3F6500363FC900E1
:1055D0009A3D5B02363FC900693E92015F3C8803F9
:1055E000D03E2E019A3D5B021E3BB504693E9201FE
:1055F000C83C2403D939E205023EF701F43BED0330
:105600008E380E079A3D5B021E3BB5043F373908C2
:10561000313DC002463A7E05EB356409C83C24039F
:105620006B39460692348E0A5F3C88038E380E072B
:105630003433B70BF43BED03AF37D607D231DF0C71
:105640008A3B5104CE369D086C30060E1E3BB504D5
:10565000EB356409022F2B0FB23A1A0505352B0AD8
:10566000932D5010463A7E051E34F10A212C7311F9
:10567000D939E2053433B70BAA2A94126B3946069E
:1056800049327C0C3129B413FD38AA065B31410D37
:10569000B327D2148E380E076C30060E3226EE1564
:1056A0001F3872077B2FCA0EAE240917AF37D607F3
:1056B000882E8D0F262321183F373908932D50103F
:1056C0009C213719CE369D089D2C12110E204B1AA5
:1056D0005D360109A42BD3117E1E5D1BEB356409D9
:1056E000AA2A9412EB1C6C1C7835C709AF295413F5
:1056F000561B791D05352B0AB2281314BE19841EBA
:1057000092348E0AB327D21424188C1F1E34F10A47
:10571000B326901588169120A933540BB1254C1649
:10572000EA1493213433B70BAE2409174A1392229B
:10573000BF321A0CA923C417A8118E2349327C0C3E
:10574000A3227E1805108824D231DF0C9C21371942
:10575000610E7E255B31410D9320EF19BB0C712644
:10576000E430A40D891FA71A140B60276C30060EB5
:105770007E1E5D1B6D094C28F42F680E721D121CD5
:10578000C40735297B2FCA0E641CC61C1B061A2AA7
:10579000022F2B0F561B791D7104FB2A882E8D0FAB
:1057A000461A2B1EC702D82B0E2EEE0F3519DC1E03
:1057B0001C01B22C932D501024188C1F72FF882DC1
:1057C000182DB11011173A20C7FD5A2E9D2C121119
:1057D000FE15E7201DFC282F212C7311EA149321BC
:1057E00073FAF22FA42BD311D5133D22CAF8B83087
:1057F000282B3412BF12E72221F77931AA2A9412FA
:10580000A8118E2379F536322D2AF4129110352401
:10581000D2F3EF32AF295413790FDA242CF2A333E9
:105820003129B413610E7E2587F05334B228131446
:10583000480D2026E3EEFF34332873142E0CC126C6
:1058400041EDA535B327D214140B6027A1EB4836E0
:1058500033273115FA09FE2702EAE536B3269015FB
:10586000DF089A2865E87E373226EE15C407352909
:10587000CBE61238B1254C16A906CE2932E5A1385F
:105880002F25AB168D05652A9CE32B39AE2409170D
:105890007104FB2A08E2B0392B24661755038F2BBD
:1058A00077E0303AA923C4173902212CE9DEAB3A5C
:1058B000262321181C01B22C5DDD213BA3227E187A
:1058C0000000412DD5DB923B1F22DB18E4FECF2DDB
:1058D0004FDAFD3B9C213719C7FD5A2ECDD8643CC9
:1058E00017219319ABFCE42E4ED7C53C9320EF193A
:1058F0008FFB6C2FD3D5213D0E204B1A73FAF22F5C
:105900005CD4783D891FA71A57F97630E8D2C93D93
:10591000041F021B3CF8F93078D1153E7E1E5D1B3A
:1059200021F779310CD05C3EF81DB81B06F6F83132
:10593000A5CE9D3E721D121CECF4743241CDD83EB2
:10594000EB1C6C1CD2F3EF32E2CB0F3F641CC61C85
:10595000B8F2683388CA403FDD1B201D9FF1DF335A
:1059600032C96B3F561B791D87F05334E1C7913F15
:10597000CE1AD31D6FEFC63495C6B13F461A2B1E03
:1059800058EE37354EC5CC3FBE19841E41EDA535C6
:105990000CC4E13F3519DC1E2BEC1236CFC2F13FAF
:1059A000AD18341F16EB7D3697C1FB3F24188C1FB2
:1059B00002EAE53665C000409B17E31FEFE84B376E
:1059C00038BFFF3F11173A20DCE7B03711BEF83F70
:1059D00088169120CBE61238F0BCEC3FFE15E7208C
:1059E000BAE57138D4BBDB3F74153D21AAE4CF384A
:1059F000BFBAC43FEA1493219CE32B39AFB9A73F48
:105A00005F14E8218EE28439A6B8853FD5133D2284
:105A100082E1DB39A2B75D3F4A13922277E0303A48
:105A2000A5B6303FBF12E7226DDF823AAFB5FD3E2B
:105A300034123B2364DED33ABEB4C53EA8118E2394
:105A40005DDD213BD5B3883E1D11E22357DC6D3B64
:105A5000F2B2453E9110352452DBB63B15B2FC3D07
:105A6000051088244FDAFD3B40B1AF3D790FDA24B1
:105A70004DD9423C71B05B3DED0E2C254DD8853C97
:105A8000A9AF033D610E7E254ED7C53CE8AEA53CCF
:105A9000D40DCF2551D6033D2EAE423C480D2026D5
:105AA00056D53F3D7BADDA3BBB0C71265CD4783DCF
:105AB000D0AC6D3B2E0CC12663D3AF3D2BACFA3A74
:105AC000A10B11276DD2E33D8EAB823A140B6027F8
:105AD00078D1153EF8AA063A870AAF2785D0453E09
